S00B00005049442E737265633C
S11300000C942A000C9447000C9447000C9447006D
S11300100C9447000C9447000C9447000C94BD01C9
S11300200C9447000C9447000C9447000C94470030
S11300300C9447000C9447000C9447000C94470020
S11300400C9447000C9447000C9447000C94470010
S11300500C94470011241FBECFE5D8E0DEBFCDBF0E
S113006010E0A0E6B0E0ECE9FEE002C005900D92DD
S1130070A837B107D9F720E0A8E7B0E001C01D9286
S1130080A638B207E1F70E9449000C944C070C947F
S113009000000E9451010E945E010E94FE010E9424
S11300A0E8010E943C010E94430164EF71E080E09A
S11300B090E00E944601B89AC09AFFCF4F925F9297
S11300C06F927F928F929F92AF92BF92CF92DF9264
S11300D0EF92FF92CF93DF9300D000D0CDB7DEB77D
S11300E00E946D026B017C0140907C0050907D0069
S11300F060907E0070907F00A30192010E946E02C6
S113010020E030E040E05FE30E94C50320917800E6
S11301103091790040917A0050917B000E946E02E8
S11301204B015C01609378007093790080937A00AE
S113013090937B00C0927C00D0927D00E0927E0080
S1130140F0927F002DEC3CEC4CEC5DE3C701B60172
S11301500E94C50369837A838B839C832AE037EDED
S113016043E25CE3C501B4010E94C5039B01AC01F9
S113017069817A818B819C810E946E024B015C01B2
S1130180A3019201C701B6010E946D0220E030E094
S1130190A9010E94C5039B01AC01C501B4010E94E1
S11301A06E026B017C0128E431EE4AE35FE30E94B6
S11301B0C00318166CF020E030E0A901C701B601B5
S11301C00E94DA02882374F4C12CD12C76010AC06F
S11301D00F2EF8E4CF2EF1EEDF2EFAE3EF2EFFE33D
S11301E0FF2EF02DC701B6010F900F900F900F90C6
S11301F0DF91CF91FF90EF90DF90CF90BF90AF90C1
S11302009F908F907F906F905F904F900895CF93C1
S1130210DF938091820090918300019690938300F4
S11302208093820020918000309181002817390743
S113023001F510928300109282000E949E0188238F
S1130240C1F00E946D01EC010E941902BE01769575
S113025067957695679580E090E00E940E039B0178
S1130260AC0160E070E080EF91E40E945E000E94C7
S1130270F401DF91CF9108950E94A70187E091E0F6
S11302800E94B60108950E94B201089524EF31E05E
S113029040E050E00E9432043093810020938000BB
S11302A0089580EB87BB87E58DB908958FB9779B57
S11302B0FECF0895779BFECF8FB10895C49A80E84E
S11302C00E94560184E00E945601C4988BE792E98B
S11302D00197F1F700C000000895CF93C49A82E01B
S11302E00E94560180E00E945601C49889EF90E074
S11302F00197F1F700C000000E945A01C82FC49A68
S113030081E00E94560180E00E945601C49889EF62
S113031090E00197F1F700C000000E945A012C2FD1
S113032030E0220F331F220F331F82958695869566
S11303308370A901482BCA01CF9108950E946D01D1
S113034021E08F3F9F4009F420E0822F08951FBCD5
S113035088E08EBD83E294EF9BBD8ABD80E189BFB6
S1130360789408958EB583608EBD0895009721F02A
S1130370909385008093840008951F920F920FB686
S11303800F9211242F933F934F935F936F937F9317
S11303908F939F93AF93BF93EF93FF93C098E09194
S11303A08400F0918500309709F00995C09AFF9177
S11303B0EF91BF91AF919F918F917F916F915F91D9
S11303C04F913F912F910F900FBE0F901F90189552
S11303D08F9A85B5886485BD85B5806285BD85B5F0
S11303E0826085BD13BC089520E030E04FE753E4FC
S11303F00E94C5030E94DF0263BD089510BC83E31D
S113040089B988E08AB986E080BD08955D9BFECFF6
S11304108CB90895CF93DF93EC018881882331F060
S113042021960E94060289918111FBCFDF91CF9121
S11304300895EF92FF921F93CF93DF93CDB7DEB76A
S113044060970FB6F894DEBF0FBECDBF9C0123703A
S11304503078332334F4215031092C6F3F6F2F5FF0
S11304603F4F69E1629FA001639F500D11245F9388
S11304704F939C01992314F42D5F3F4F3595279595
S1130480359527953F932F9380E690E09F938F9324
S11304901F9280E18F939E012F5F3F4F79013F931D
S11304A02F930E945404192FC7010E940A02812F1E
S11304B080950FB6F894DEBF0FBECDBF881F882786
S11304C0881F60960FB6F894DEBF0FBECDBFDF91D4
S11304D0CF911F91FF90EF9008955058BB27AA2702
S11304E00E9485020C9486030E94780338F00E94CF
S11304F07F0320F039F49F3F19F426F40C9475031C
S11305000EF4E095E7FB0C946F03E92F0E94970328
S113051058F3BA17620773078407950720F079F434
S1130520A6F50C94B9030EF4E0950B2EBA2FA02D6A
S11305300B01B90190010C01CA01A0011124FF278C
S1130540591B99F0593F50F4503E68F11A16F04087
S1130550A22F232F342F4427585FF3CF4695379586
S11305602795A795F0405395C9F77EF41F16BA0B4B
S1130570620B730B840BBAF09150A1F0FF0FBB1FF9
S1130580661F771F881FC2F70EC0BA0F621F731F42
S1130590841F48F4879577956795B795F7959E3F9F
S11305A008F0B0CF9395880F08F09927EE0F979530
S11305B0879508950E944B0308F481E008950E94F2
S11305C09F0388F09F5798F0B92F9927B751B0F03F
S11305D0E1F0660F771F881F991F1AF0BA95C9F7C3
S11305E014C0B13091F00E94B903B1E008950C94A5
S11305F0B903672F782F8827B85F39F0B93FCCF358
S1130600869577956795B395D9F73EF4909580953F
S1130610709561957F4F8F4F9F4F0895E89409C05F
S113062097FB3EF490958095709561957F4F8F4F21
S11306309F4F9923A9F0F92F96E9BB279395F69537
S1130640879577956795B795F111F8CFFAF4BB0FB5
S113065011F460FF1BC06F5F7F4F8F4F9F4F16C019
S1130660882311F096E911C0772321F09EE8872FA3
S1130670762F05C0662371F096E8862F70E060E05F
S11306802AF09A95660F771F881FDAF7880F9695D8
S1130690879597F90895990F0008550FAA0BE0E87C
S11306A0FEEF16161706E807F907C0F01216130630
S11306B0E407F50798F0621B730B840B950B39F470
S11306C00A2661F0232B242B252B21F408950A26D6
S11306D009F4A140A6958FEF811D811D089597F916
S11306E09F6780E870E060E008959FEF80EC0895D4
S11306F000240A94161617061806090608950024FD
S11307000A9412161306140605060895092E039476
S1130710000C11F4882352F0BB0F40F4BF2B11F4EA
S113072060FF04C06F5F7F4F8F4F9F4F089557FD49
S11307309058440F551F59F05F3F71F04795880F4B
S113074097FB991F61F09F3F79F0879508951216E2
S113075013061406551FF2CF4695F1DF08C016168E
S113076017061806991FF1CF86957105610508943F
S11307700895E894BB2766277727CB0197F9089556
S11307800E944B0308F48FEF08950E94D8030C9441
S113079086030E94780338F00E947F0320F095239B
S11307A011F00C946F030C94750311240C94BA0388
S11307B00E94970370F3959FC1F3950F50E0551F66
S11307C0629FF001729FBB27F00DB11D639FAA27A2
S11307D0F00DB11DAA1F649F6627B00DA11D661FF1
S11307E0829F2227B00DA11D621F739FB00DA11D12
S11307F0621F839FA00D611D221F749F3327A00DCC
S1130800611D231F849F600D211D822F762F6A2F67
S113081011249F5750409AF0F1F088234AF0EE0FCC
S1130820FF1FBB1F661F771F881F91505040A9F7F9
S11308309E3F510580F00C946F030C94BA035F3F04
S1130840E4F3983ED4F3869577956795B795F79535
S1130850E7959F5FC1F7FE2B880F911D96958795AD
S113086097F90895A1E21A2EAA1BBB1BFD010DC026
S1130870AA1FBB1FEE1FFF1FA217B307E407F5074C
S113088020F0A21BB30BE40BF50B661F771F881F28
S1130890991F1A9469F760957095809590959B01BE
S11308A0AC01BD01CF010895AEE0B0E0EAE5F4E0AB
S11308B00C9423070D891E898F89988D26E02C833B
S11308C01A83098397FF02C080E090E801979E8312
S11308D08D83AE01455E5F4F698D7A8DCE010196A1
S11308E00E9484044D815E8157FD0AC02F813885A2
S11308F0421753070CF49A01F801E20FF31F108218
S11309002E96E4E00C943F07ABE0B0E0EAE8F4E0B4
S11309100C9415076C017B018A01FC011782168275
S1130920838181FFCCC1CE0101963C01F601938104
S1130930F70193FD859193FF81917F01882309F449
S1130940BAC1853239F493FD859193FF81917F017A
S1130950853229F4B60190E00E947B06E7CF912C02
S1130960212C312CFFE1F315D8F08B3279F038F4D7
S1130970803279F08332A1F4232D20611DC08D32A1
S113098061F0803369F4232D216016C0832D8260C9
S1130990382EE32DE4603E2E2AC0F32DF8601DC0EE
S11309A037FC2DC020ED280F2A3040F08E32B9F4E8
S11309B036FC81C1232D2064322E19C036FE06C0B8
S11309C08AE0989E200D1124922E11C0EAE02E9EFA
S11309D0200D1124222EF32DF0623F2E08C08C36F8
S11309E021F4832D8068382E02C0883641F4F70143
S11309F093FD859193FF81917F018111B3CF982F4E
S1130A009F7D9554933028F40C5F1F4F9FE3998387
S1130A100DC0833631F0833771F0833509F059C046
S1130A2021C0F801808189830E5F1F4F882483943D
S1130A30912C530113C02801F2E04F0E511CF80110
S1130A40A080B18036FE03C0692D70E002C06FEF54
S1130A507FEFC5010E9470064C018201F32DFF77E0
S1130A603F2E16C0280122E0420E511CF801A0803E
S1130A70B18036FE03C0692D70E002C06FEF7FEFD6
S1130A80C5010E9465064C01F32DF0683F2E8201DA
S1130A9033FC1BC0822D90E088169906B0F4B60191
S1130AA080E290E00E947B062A94F4CFF50137FCA3
S1130AB0859137FE81915F01B60190E00E947B062B
S1130AC021102A9421E0821A91088114910471F76B
S1130AD0E8C0843611F0893641F5F80137FE07C0C5
S1130AE060817181828193810C5F1F4F08C0608196
S1130AF07181072E000C880B990B0E5F1F4FF32D8D
S1130B00FF763F2E97FF09C090958095709561956B
S1130B107F4F8F4F9F4FF0683F2E2AE030E0A301B4
S1130B200E94B706882E861845C0853731F4232DD8
S1130B302F7EB22E2AE030E025C0932D997FB92E66
S1130B408F36C1F018F4883579F0B5C0803719F0C4
S1130B50883721F0B0C0E92FE061BE2EB4FE0DC08D
S1130B60FB2DF460BF2E09C034FE0AC0292F266075
S1130B70B22E06C028E030E005C020E130E002C01B
S1130B8020E132E0F801B7FE07C060817181828103
S1130B9093810C5F1F4F06C06081718180E090E0FB
S1130BA00E5F1F4FA3010E94B706882E8618FB2DE7
S1130BB0FF773F2E36FE0DC0232D2E7FA22E8914E3
S1130BC058F434FE0BC032FC09C0832D8E7EA82E4F
S1130BD005C0B82CA32C03C0B82C01C0B92CA4FEAA
S1130BE00FC0FE01E80DF11D8081803321F49A2DA0
S1130BF0997EA92E09C0A2FE06C0B394B39404C082
S1130C008A2D867809F0B394A3FC11C0A0FE06C017
S1130C10B21488F4280C922C9B180EC0B21460F401
S1130C20B60180E290E00E947B06B394F7CFB21441
S1130C3018F42B1802C0982C212CA4FE10C0B60165
S1130C4080E390E00E947B06A2FE17C0A1FC03C0D3
S1130C5088E790E002C088E590E0B6010CC08A2DD8
S1130C60867859F0A1FE02C08BE201C080E2A7FCA5
S1130C708DE2B60190E00E947B06891438F4B60137
S1130C8080E390E00E947B069A94F7CF8A94F30164
S1130C90E80DF11D8081B60190E00E947B06811071
S1130CA0F5CF222009F442CEB60180E290E00E9402
S1130CB07B062A94F6CFF6018681978102C08FEFD6
S1130CC09FEF2B96E2E10C943107FC0105906150F3
S1130CD070400110D8F7809590958E0F9F1F08954E
S1130CE0FC016150704001900110D8F780959095F7
S1130CF08E0F9F1F08950F931F93CF93DF93FB01D4
S1130D00238121FD03C08FEF9FEF2CC022FF16C06B
S1130D1046815781248135814217530744F4A081C9
S1130D20B1819D012F5F3F4F318320838C932681B6
S1130D3037812F5F3F4F3783268314C08B01EC012B
S1130D40FB010084F185E02D0995892BE1F6D8019A
S1130D5016968D919C911797019617969C938E9356
S1130D601697CE01DF91CF911F910F910895FA014B
S1130D70AA27283051F1203181F1E8946F936E7FD6
S1130D806E5F7F4F8F4F9F4FAF4FB1E03ED0B4E0C7
S1130D903CD0670F781F891F9A1FA11D680F791F08
S1130DA08A1F911DA11D6A0F711D811D911DA11D19
S1130DB020D009F468943F912AE0269F1124301929
S1130DC0305D3193DEF6CF010895462F4770405DC4
S1130DD04193B3E00FD0C9F7F6CF462F4F70405D73
S1130DE04A3318F0495D31FD4052419302D0A9F7CE
S1130DF0EACFB4E0A6959795879577956795BA95C8
S1130E00C9F700976105710508959B01AC010A2E8D
S1130E1006945795479537952795BA95C9F7620F64
S1130E20731F841F951FA01D08952F923F924F9208
S1130E305F926F927F928F929F92AF92BF92CF9266
S1130E40DF92EF92FF920F931F93CF93DF93CDB76F
S1130E50DEB7CA1BDB0B0FB6F894DEBF0FBECDBFE7
S1130E6009942A88398848885F846E847D848C84B8
S1130E709B84AA84B984C884DF80EE80FD800C81C1
S1130E801B81AA81B981CE0FD11D0FB6F894DEBFA4
S10F0E900FBECDBFED010895F894FFCF14
S1130E9C54656D70657261747572653A2025642EA3
S10B0EAC2530326420430A00E2
S9030000FC
